{"abi":[{"type":"constructor","inputs":[{"name":"baseURI","type":"string","internalType":"string"},{"name":"initialOwner","type":"address","internalType":"address"}],"stateMutability":"nonpayable"},{"type":"function","name":"balanceOf","inputs":[{"name":"account","type":"address","internalType":"address"},{"name":"id","type":"uint256","internalType":"uint256"}],"outputs":[{"name":"","type":"uint256","internalType":"uint256"}],"stateMutability":"view"},{"type":"function","name":"balanceOfBatch","inputs":[{"name":"accounts","type":"address[]","internalType":"address[]"},{"name":"ids","type":"uint256[]","internalType":"uint256[]"}],"outputs":[{"name":"","type":"uint256[]","internalType":"uint256[]"}],"stateMutability":"view"},{"type":"function","name":"isApprovedForAll","inputs":[{"name":"account","type":"address","internalType":"address"},{"name":"operator","type":"address","internalType":"address"}],"outputs":[{"name":"","type":"bool","internalType":"bool"}],"stateMutability":"view"},{"type":"function","name":"mintRWA","inputs":[{"name":"to","type":"address","internalType":"address"},{"name":"tokenId","type":"uint256","internalType":"uint256"},{"name":"amount","type":"uint256","internalType":"uint256"},{"name":"metadataURI","type":"string","internalType":"string"}],"outputs":[],"stateMutability":"nonpayable"},{"type":"function","name":"owner","inputs":[],"outputs":[{"name":"","type":"address","internalType":"address"}],"stateMutability":"view"},{"type":"function","name":"renounceOwnership","inputs":[],"outputs":[],"stateMutability":"nonpayable"},{"type":"function","name":"safeBatchTransferFrom","inputs":[{"name":"from","type":"address","internalType":"address"},{"name":"to","type":"address","internalType":"address"},{"name":"ids","type":"uint256[]","internalType":"uint256[]"},{"name":"values","type":"uint256[]","internalType":"uint256[]"},{"name":"data","type":"bytes","internalType":"bytes"}],"outputs":[],"stateMutability":"nonpayable"},{"type":"function","name":"safeTransferFrom","inputs":[{"name":"from","type":"address","internalType":"address"},{"name":"to","type":"address","internalType":"address"},{"name":"id","type":"uint256","internalType":"uint256"},{"name":"value","type":"uint256","internalType":"uint256"},{"name":"data","type":"bytes","internalType":"bytes"}],"outputs":[],"stateMutability":"nonpayable"},{"type":"function","name":"setApprovalForAll","inputs":[{"name":"operator","type":"address","internalType":"address"},{"name":"approved","type":"bool","internalType":"bool"}],"outputs":[],"stateMutability":"nonpayable"},{"type":"function","name":"supportsInterface","inputs":[{"name":"interfaceId","type":"bytes4","internalType":"bytes4"}],"outputs":[{"name":"","type":"bool","internalType":"bool"}],"stateMutability":"view"},{"type":"function","name":"transferOwnership","inputs":[{"name":"newOwner","type":"address","internalType":"address"}],"outputs":[],"stateMutability":"nonpayable"},{"type":"function","name":"uri","inputs":[{"name":"tokenId","type":"uint256","internalType":"uint256"}],"outputs":[{"name":"","type":"string","internalType":"string"}],"stateMutability":"view"},{"type":"event","name":"ApprovalForAll","inputs":[{"name":"account","type":"address","indexed":true,"internalType":"address"},{"name":"operator","type":"address","indexed":true,"internalType":"address"},{"name":"approved","type":"bool","indexed":false,"internalType":"bool"}],"anonymous":false},{"type":"event","name":"OwnershipTransferred","inputs":[{"name":"previousOwner","type":"address","indexed":true,"internalType":"address"},{"name":"newOwner","type":"address","indexed":true,"internalType":"address"}],"anonymous":false},{"type":"event","name":"TokenMinted","inputs":[{"name":"to","type":"address","indexed":true,"internalType":"address"},{"name":"tokenId","type":"uint256","indexed":true,"internalType":"uint256"},{"name":"amount","type":"uint256","indexed":false,"internalType":"uint256"},{"name":"metadataURI","type":"string","indexed":false,"internalType":"string"}],"anonymous":false},{"type":"event","name":"TransferBatch","inputs":[{"name":"operator","type":"address","indexed":true,"internalType":"address"},{"name":"from","type":"address","indexed":true,"internalType":"address"},{"name":"to","type":"address","indexed":true,"internalType":"address"},{"name":"ids","type":"uint256[]","indexed":false,"internalType":"uint256[]"},{"name":"values","type":"uint256[]","indexed":false,"internalType":"uint256[]"}],"anonymous":false},{"type":"event","name":"TransferSingle","inputs":[{"name":"operator","type":"address","indexed":true,"internalType":"address"},{"name":"from","type":"address","indexed":true,"internalType":"address"},{"name":"to","type":"address","indexed":true,"internalType":"address"},{"name":"id","type":"uint256","indexed":false,"internalType":"uint256"},{"name":"value","type":"uint256","indexed":false,"internalType":"uint256"}],"anonymous":false},{"type":"event","name":"URI","inputs":[{"name":"value","type":"string","indexed":false,"internalType":"string"},{"name":"id","type":"uint256","indexed":true,"internalType":"uint256"}],"anonymous":false},{"type":"error","name":"ERC1155InsufficientBalance","inputs":[{"name":"sender","type":"address","internalType":"address"},{"name":"balance","type":"uint256","internalType":"uint256"},{"name":"needed","type":"uint256","internalType":"uint256"},{"name":"tokenId","type":"uint256","internalType":"uint256"}]},{"type":"error","name":"ERC1155InvalidApprover","inputs":[{"name":"approver","type":"address","internalType":"address"}]},{"type":"error","name":"ERC1155InvalidArrayLength","inputs":[{"name":"idsLength","type":"uint256","internalType":"uint256"},{"name":"valuesLength","type":"uint256","internalType":"uint256"}]},{"type":"error","name":"ERC1155InvalidOperator","inputs":[{"name":"operator","type":"address","internalType":"address"}]},{"type":"error","name":"ERC1155InvalidReceiver","inputs":[{"name":"receiver","type":"address","internalType":"address"}]},{"type":"error","name":"ERC1155InvalidSender","inputs":[{"name":"sender","type":"address","internalType":"address"}]},{"type":"error","name":"ERC1155MissingApprovalForAll","inputs":[{"name":"operator","type":"address","internalType":"address"},{"name":"owner","type":"address","internalType":"address"}]},{"type":"error","name":"OwnableInvalidOwner","inputs":[{"name":"owner","type":"address","internalType":"address"}]},{"type":"error","name":"OwnableUnauthorizedAccount","inputs":[{"name":"account","type":"address","internalType":"address"}]},{"type":"error","name":"UnauthorizedAccess","inputs":[{"name":"caller","type":"address","internalType":"address"}]}],"bytecode":{"object":"0x608060405234801561000f575f5ffd5b5060405161302b38038061302b83398181016040528101906100319190610347565b8082610042816100ca60201b60201c565b505f73ffffffffffffffffffffffffffffffffffffffff168173ffffffffffffffffffffffffffffffffffffffff16036100b3575f6040517f1e4fbdf70000000000000000000000000000000000000000000000000000000081526004016100aa91906103b0565b60405180910390fd5b6100c2816100dd60201b60201c565b5050506106a8565b80600290816100d991906105d9565b5050565b5f60035f9054906101000a900473ffffffffffffffffffffffffffffffffffffffff1690508160035f6101000a81548173ffffffffffffffffffffffffffffffffffffffff021916908373ffffffffffffffffffffffffffffffffffffffff1602179055508173ffffffffffffffffffffffffffffffffffffffff168173ffffffffffffffffffffffffffffffffffffffff167f8be0079c531659141344cd1fd0a4f28419497f9722a3daafe3b4186f6b6457e060405160405180910390a35050565b5f604051905090565b5f5ffd5b5f5ffd5b5f5ffd5b5f5ffd5b5f601f19601f8301169050919050565b7f4e487b71000000000000000000000000000000000000000000000000000000005f52604160045260245ffd5b6101ff826101b9565b810181811067ffffffffffffffff8211171561021e5761021d6101c9565b5b80604052505050565b5f6102306101a0565b905061023c82826101f6565b919050565b5f67ffffffffffffffff82111561025b5761025a6101c9565b5b610264826101b9565b9050602081019050919050565b8281835e5f83830152505050565b5f61029161028c84610241565b610227565b9050828152602081018484840111156102ad576102ac6101b5565b5b6102b8848285610271565b509392505050565b5f82601f8301126102d4576102d36101b1565b5b81516102e484826020860161027f565b91505092915050565b5f73ffffffffffffffffffffffffffffffffffffffff82169050919050565b5f610316826102ed565b9050919050565b6103268161030c565b8114610330575f5ffd5b50565b5f815190506103418161031d565b92915050565b5f5f6040838503121561035d5761035c6101a9565b5b5f83015167ffffffffffffffff81111561037a576103796101ad565b5b610386858286016102c0565b925050602061039785828601610333565b9150509250929050565b6103aa8161030c565b82525050565b5f6020820190506103c35f8301846103a1565b92915050565b5f81519050919050565b7f4e487b71000000000000000000000000000000000000000000000000000000005f52602260045260245ffd5b5f600282049050600182168061041757607f821691505b60208210810361042a576104296103d3565b5b50919050565b5f819050815f5260205f209050919050565b5f6020601f8301049050919050565b5f82821b905092915050565b5f6008830261048c7fffffffffffffffffffffffffffffffffffffffffffffffffffffffffffffffff82610451565b6104968683610451565b95508019841693508086168417925050509392505050565b5f819050919050565b5f819050919050565b5f6104da6104d56104d0846104ae565b6104b7565b6104ae565b9050919050565b5f819050919050565b6104f3836104c0565b6105076104ff826104e1565b84845461045d565b825550505050565b5f5f905090565b61051e61050f565b6105298184846104ea565b505050565b5b8181101561054c576105415f82610516565b60018101905061052f565b5050565b601f8211156105915761056281610430565b61056b84610442565b8101602085101561057a578190505b61058e61058685610442565b83018261052e565b50505b505050565b5f82821c905092915050565b5f6105b15f1984600802610596565b1980831691505092915050565b5f6105c983836105a2565b9150826002028217905092915050565b6105e2826103c9565b67ffffffffffffffff8111156105fb576105fa6101c9565b5b6106058254610400565b610610828285610550565b5f60209050601f831160018114610641575f841561062f578287015190505b61063985826105be565b8655506106a0565b601f19841661064f86610430565b5f5b8281101561067657848901518255600182019150602085019450602081019050610651565b86831015610693578489015161068f601f8916826105a2565b8355505b6001600288020188555050505b505050505050565b612976806106b55f395ff3fe608060405234801561000f575f5ffd5b50600436106100b1575f3560e01c8063715018a61161006f578063715018a6146101ad5780638da5cb5b146101b7578063a22cb465146101d5578063e985e9c5146101f1578063f242432a14610221578063f2fde38b1461023d576100b1565b8062fdd58e146100b557806301ffc9a7146100e55780630e89341c146101155780632eb2c2d6146101455780634e1273f4146101615780635d77c0ca14610191575b5f5ffd5b6100cf60048036038101906100ca91906118b4565b610259565b6040516100dc9190611901565b60405180910390f35b6100ff60048036038101906100fa919061196f565b6102ae565b60405161010c91906119b4565b60405180910390f35b61012f600480360381019061012a91906119cd565b61038f565b60405161013c9190611a68565b60405180910390f35b61015f600480360381019061015a9190611c78565b61048f565b005b61017b60048036038101906101769190611e03565b6104b4565b6040516101889190611f30565b60405180910390f35b6101ab60048036038101906101a69190611fee565b6105be565b005b6101b56107c9565b005b6101bf6107dc565b6040516101cc919061207d565b60405180910390f35b6101ef60048036038101906101ea91906120c0565b610804565b005b61020b600480360381019061020691906120fe565b61081a565b60405161021891906119b4565b60405180910390f35b61023b6004803603810190610236919061213c565b6108a8565b005b610257600480360381019061025291906121cf565b6108cd565b005b5f5f5f8381526020019081526020015f205f8473ffffffffffffffffffffffffffffffffffffffff1673ffffffffffffffffffffffffffffffffffffffff1681526020019081526020015f2054905092915050565b5f7fd9b67a26000000000000000000000000000000000000000000000000000000007bffffffffffffffffffffffffffffffffffffffffffffffffffffffff1916827bffffffffffffffffffffffffffffffffffffffffffffffffffffffff1916148061037857507f0e89341c000000000000000000000000000000000000000000000000000000007bffffffffffffffffffffffffffffffffffffffffffffffffffffffff1916827bffffffffffffffffffffffffffffffffffffffffffffffffffffffff1916145b80610388575061038782610951565b5b9050919050565b60605f60045f8481526020019081526020015f2080546103ae90612227565b9050116103f0576040517f08c379a00000000000000000000000000000000000000000000000000000000081526004016103e7906122c7565b60405180910390fd5b60045f8381526020019081526020015f20805461040c90612227565b80601f016020809104026020016040519081016040528092919081815260200182805461043890612227565b80156104835780601f1061045a57610100808354040283529160200191610483565b820191905f5260205f20905b81548152906001019060200180831161046657829003601f168201915b50505050509050919050565b6104a061049a6109ba565b866109c1565b6104ad8585858585610a4c565b5050505050565b6060815183511461050057815183516040517f5b0599910000000000000000000000000000000000000000000000000000000081526004016104f79291906122e5565b60405180910390fd5b5f835167ffffffffffffffff81111561051c5761051b611a8c565b5b60405190808252806020026020018201604052801561054a5781602001602082028036833780820191505090505b5090505f5f90505b84518110156105b3576105896105718287610b4290919063ffffffff16565b6105848387610b5590919063ffffffff16565b610259565b82828151811061059c5761059b61230c565b5b602002602001018181525050806001019050610552565b508091505092915050565b6105c66107dc565b73ffffffffffffffffffffffffffffffffffffffff163373ffffffffffffffffffffffffffffffffffffffff161461063557336040517fdccef96400000000000000000000000000000000000000000000000000000000815260040161062c919061207d565b60405180910390fd5b5f815111610678576040517f08c379a000000000000000000000000000000000000000000000000000000000815260040161066f906123a9565b60405180910390fd5b5f60045f8581526020019081526020015f20805461069590612227565b9050146106d7576040517f08c379a00000000000000000000000000000000000000000000000000000000081526004016106ce90612437565b60405180910390fd5b6106df6107dc565b73ffffffffffffffffffffffffffffffffffffffff163373ffffffffffffffffffffffffffffffffffffffff161461074e57336040517fdccef964000000000000000000000000000000000000000000000000000000008152600401610745919061207d565b60405180910390fd5b61076884848460405180602001604052805f815250610b68565b6107728382610bfe565b828473ffffffffffffffffffffffffffffffffffffffff167ffd8041fd7e4d7047a13bde415402e7278ad32792f9bdf46102a274181893cc9484846040516107bb929190612455565b60405180910390a350505050565b6107d1610c21565b6107da5f610ca8565b565b5f60035f9054906101000a900473ffffffffffffffffffffffffffffffffffffffff16905090565b61081661080f6109ba565b8383610d6b565b5050565b5f60015f8473ffffffffffffffffffffffffffffffffffffffff1673ffffffffffffffffffffffffffffffffffffffff1681526020019081526020015f205f8373ffffffffffffffffffffffffffffffffffffffff1673ffffffffffffffffffffffffffffffffffffffff1681526020019081526020015f205f9054906101000a900460ff16905092915050565b6108b96108b36109ba565b866109c1565b6108c68585858585610f44565b5050505050565b6108d5610c21565b5f73ffffffffffffffffffffffffffffffffffffffff168173ffffffffffffffffffffffffffffffffffffffff1603610945575f6040517f1e4fbdf700000000000000000000000000000000000000000000000000000000815260040161093c919061207d565b60405180910390fd5b61094e81610ca8565b50565b5f7f01ffc9a7000000000000000000000000000000000000000000000000000000007bffffffffffffffffffffffffffffffffffffffffffffffffffffffff1916827bffffffffffffffffffffffffffffffffffffffffffffffffffffffff1916149050919050565b5f33905090565b8173ffffffffffffffffffffffffffffffffffffffff168173ffffffffffffffffffffffffffffffffffffffff1614158015610a045750610a02818361081a565b155b15610a485781816040517fe237d922000000000000000000000000000000000000000000000000000000008152600401610a3f929190612483565b60405180910390fd5b5050565b5f73ffffffffffffffffffffffffffffffffffffffff168473ffffffffffffffffffffffffffffffffffffffff1603610abc575f6040517f57f447ce000000000000000000000000000000000000000000000000000000008152600401610ab3919061207d565b60405180910390fd5b5f73ffffffffffffffffffffffffffffffffffffffff168573ffffffffffffffffffffffffffffffffffffffff1603610b2c575f6040517f01a83514000000000000000000000000000000000000000000000000000000008152600401610b23919061207d565b60405180910390fd5b610b3b8585858585600161104b565b5050505050565b5f60208202602084010151905092915050565b5f60208202602084010151905092915050565b5f73ffffffffffffffffffffffffffffffffffffffff168473ffffffffffffffffffffffffffffffffffffffff1603610bd8575f6040517f57f447ce000000000000000000000000000000000000000000000000000000008152600401610bcf919061207d565b60405180910390fd5b5f5f610be485856110f5565b91509150610bf65f878484875f61104b565b505050505050565b8060045f8481526020019081526020015f209081610c1c919061264a565b505050565b610c296109ba565b73ffffffffffffffffffffffffffffffffffffffff16610c476107dc565b73ffffffffffffffffffffffffffffffffffffffff1614610ca657610c6a6109ba565b6040517f118cdaa7000000000000000000000000000000000000000000000000000000008152600401610c9d919061207d565b60405180910390fd5b565b5f60035f9054906101000a900473ffffffffffffffffffffffffffffffffffffffff1690508160035f6101000a81548173ffffffffffffffffffffffffffffffffffffffff021916908373ffffffffffffffffffffffffffffffffffffffff1602179055508173ffffffffffffffffffffffffffffffffffffffff168173ffffffffffffffffffffffffffffffffffffffff167f8be0079c531659141344cd1fd0a4f28419497f9722a3daafe3b4186f6b6457e060405160405180910390a35050565b5f73ffffffffffffffffffffffffffffffffffffffff168373ffffffffffffffffffffffffffffffffffffffff1603610ddb575f6040517f3e31884e000000000000000000000000000000000000000000000000000000008152600401610dd2919061207d565b60405180910390fd5b5f73ffffffffffffffffffffffffffffffffffffffff168273ffffffffffffffffffffffffffffffffffffffff1603610e4b575f6040517fced3e100000000000000000000000000000000000000000000000000000000008152600401610e42919061207d565b60405180910390fd5b8060015f8573ffffffffffffffffffffffffffffffffffffffff1673ffffffffffffffffffffffffffffffffffffffff1681526020019081526020015f205f8473ffffffffffffffffffffffffffffffffffffffff1673ffffffffffffffffffffffffffffffffffffffff1681526020019081526020015f205f6101000a81548160ff0219169083151502179055508173ffffffffffffffffffffffffffffffffffffffff168373ffffffffffffffffffffffffffffffffffffffff167f17307eab39ab6107e8899845ad3d59bd9653f200f220920489ca2b5937696c3183604051610f3791906119b4565b60405180910390a3505050565b5f73ffffffffffffffffffffffffffffffffffffffff168473ffffffffffffffffffffffffffffffffffffffff1603610fb4575f6040517f57f447ce000000000000000000000000000000000000000000000000000000008152600401610fab919061207d565b60405180910390fd5b5f73ffffffffffffffffffffffffffffffffffffffff168573ffffffffffffffffffffffffffffffffffffffff1603611024575f6040517f01a8351400000000000000000000000000000000000000000000000000000000815260040161101b919061207d565b60405180910390fd5b5f5f61103085856110f5565b9150915061104287878484875f61104b565b50505050505050565b61105786868686611125565b5f73ffffffffffffffffffffffffffffffffffffffff168573ffffffffffffffffffffffffffffffffffffffff16146110ed575f6110936109ba565b905081156110ae576110a98188888888886114b8565b6110eb565b5f6110c25f87610b5590919063ffffffff16565b90505f6110d85f87610b5590919063ffffffff16565b90506110e8838a8a85858a611667565b50505b505b505050505050565b60608060405191506001825283602083015260408201905060018152826020820152604081016040529250929050565b805182511461116f57815181516040517f5b0599910000000000000000000000000000000000000000000000000000000081526004016111669291906122e5565b60405180910390fd5b5f6111786109ba565b90505f5f90505b8351811015611377575f61119c8286610b5590919063ffffffff16565b90505f6111b28386610b5590919063ffffffff16565b90505f73ffffffffffffffffffffffffffffffffffffffff168873ffffffffffffffffffffffffffffffffffffffff16146112d5575f5f5f8481526020019081526020015f205f8a73ffffffffffffffffffffffffffffffffffffffff1673ffffffffffffffffffffffffffffffffffffffff1681526020019081526020015f205490508181101561128157888183856040517f03dee4c50000000000000000000000000000000000000000000000000000000081526004016112789493929190612719565b60405180910390fd5b8181035f5f8581526020019081526020015f205f8b73ffffffffffffffffffffffffffffffffffffffff1673ffffffffffffffffffffffffffffffffffffffff1681526020019081526020015f2081905550505b5f73ffffffffffffffffffffffffffffffffffffffff168773ffffffffffffffffffffffffffffffffffffffff161461136a57805f5f8481526020019081526020015f205f8973ffffffffffffffffffffffffffffffffffffffff1673ffffffffffffffffffffffffffffffffffffffff1681526020019081526020015f205f8282546113629190612789565b925050819055505b505080600101905061117f565b506001835103611432575f6113955f85610b5590919063ffffffff16565b90505f6113ab5f85610b5590919063ffffffff16565b90508573ffffffffffffffffffffffffffffffffffffffff168773ffffffffffffffffffffffffffffffffffffffff168473ffffffffffffffffffffffffffffffffffffffff167fc3d58168c5ae7397731d063d5bbf3d657854427343f4c083240f7aacaa2d0f6285856040516114239291906122e5565b60405180910390a450506114b1565b8373ffffffffffffffffffffffffffffffffffffffff168573ffffffffffffffffffffffffffffffffffffffff168273ffffffffffffffffffffffffffffffffffffffff167f4a39dc06d4c0dbc64b70af90fd698a233a518aa5d07e595d983b8c0526c8f7fb86866040516114a89291906127bc565b60405180910390a45b5050505050565b5f8473ffffffffffffffffffffffffffffffffffffffff163b111561165f578373ffffffffffffffffffffffffffffffffffffffff1663bc197c8187878686866040518663ffffffff1660e01b8152600401611518959493929190612843565b6020604051808303815f875af192505050801561155357506040513d601f19601f8201168201806040525081019061155091906128bd565b60015b6115d4573d805f8114611581576040519150601f19603f3d011682016040523d82523d5f602084013e611586565b606091505b505f8151036115cc57846040517f57f447ce0000000000000000000000000000000000000000000000000000000081526004016115c3919061207d565b60405180910390fd5b805160208201fd5b63bc197c8160e01b7bffffffffffffffffffffffffffffffffffffffffffffffffffffffff1916817bffffffffffffffffffffffffffffffffffffffffffffffffffffffff19161461165d57846040517f57f447ce000000000000000000000000000000000000000000000000000000008152600401611654919061207d565b60405180910390fd5b505b505050505050565b5f8473ffffffffffffffffffffffffffffffffffffffff163b111561180e578373ffffffffffffffffffffffffffffffffffffffff1663f23a6e6187878686866040518663ffffffff1660e01b81526004016116c79594939291906128e8565b6020604051808303815f875af192505050801561170257506040513d601f19601f820116820180604052508101906116ff91906128bd565b60015b611783573d805f8114611730576040519150601f19603f3d011682016040523d82523d5f602084013e611735565b606091505b505f81510361177b57846040517f57f447ce000000000000000000000000000000000000000000000000000000008152600401611772919061207d565b60405180910390fd5b805160208201fd5b63f23a6e6160e01b7bffffffffffffffffffffffffffffffffffffffffffffffffffffffff1916817bffffffffffffffffffffffffffffffffffffffffffffffffffffffff19161461180c57846040517f57f447ce000000000000000000000000000000000000000000000000000000008152600401611803919061207d565b60405180910390fd5b505b505050505050565b5f604051905090565b5f5ffd5b5f5ffd5b5f73ffffffffffffffffffffffffffffffffffffffff82169050919050565b5f61185082611827565b9050919050565b61186081611846565b811461186a575f5ffd5b50565b5f8135905061187b81611857565b92915050565b5f819050919050565b61189381611881565b811461189d575f5ffd5b50565b5f813590506118ae8161188a565b92915050565b5f5f604083850312156118ca576118c961181f565b5b5f6118d78582860161186d565b92505060206118e8858286016118a0565b9150509250929050565b6118fb81611881565b82525050565b5f6020820190506119145f8301846118f2565b92915050565b5f7fffffffff0000000000000000000000000000000000000000000000000000000082169050919050565b61194e8161191a565b8114611958575f5ffd5b50565b5f8135905061196981611945565b92915050565b5f602082840312156119845761198361181f565b5b5f6119918482850161195b565b91505092915050565b5f8115159050919050565b6119ae8161199a565b82525050565b5f6020820190506119c75f8301846119a5565b92915050565b5f602082840312156119e2576119e161181f565b5b5f6119ef848285016118a0565b91505092915050565b5f81519050919050565b5f82825260208201905092915050565b8281835e5f83830152505050565b5f601f19601f8301169050919050565b5f611a3a826119f8565b611a448185611a02565b9350611a54818560208601611a12565b611a5d81611a20565b840191505092915050565b5f6020820190508181035f830152611a808184611a30565b905092915050565b5f5ffd5b7f4e487b71000000000000000000000000000000000000000000000000000000005f52604160045260245ffd5b611ac282611a20565b810181811067ffffffffffffffff82111715611ae157611ae0611a8c565b5b80604052505050565b5f611af3611816565b9050611aff8282611ab9565b919050565b5f67ffffffffffffffff821115611b1e57611b1d611a8c565b5b602082029050602081019050919050565b5f5ffd5b5f611b45611b4084611b04565b611aea565b90508083825260208201905060208402830185811115611b6857611b67611b2f565b5b835b81811015611b915780611b7d88826118a0565b845260208401935050602081019050611b6a565b5050509392505050565b5f82601f830112611baf57611bae611a88565b5b8135611bbf848260208601611b33565b91505092915050565b5f5ffd5b5f67ffffffffffffffff821115611be657611be5611a8c565b5b611bef82611a20565b9050602081019050919050565b828183375f83830152505050565b5f611c1c611c1784611bcc565b611aea565b905082815260208101848484011115611c3857611c37611bc8565b5b611c43848285611bfc565b509392505050565b5f82601f830112611c5f57611c5e611a88565b5b8135611c6f848260208601611c0a565b91505092915050565b5f5f5f5f5f60a08688031215611c9157611c9061181f565b5b5f611c9e8882890161186d565b9550506020611caf8882890161186d565b945050604086013567ffffffffffffffff811115611cd057611ccf611823565b5b611cdc88828901611b9b565b935050606086013567ffffffffffffffff811115611cfd57611cfc611823565b5b611d0988828901611b9b565b925050608086013567ffffffffffffffff811115611d2a57611d29611823565b5b611d3688828901611c4b565b9150509295509295909350565b5f67ffffffffffffffff821115611d5d57611d5c611a8c565b5b602082029050602081019050919050565b5f611d80611d7b84611d43565b611aea565b90508083825260208201905060208402830185811115611da357611da2611b2f565b5b835b81811015611dcc5780611db8888261186d565b845260208401935050602081019050611da5565b5050509392505050565b5f82601f830112611dea57611de9611a88565b5b8135611dfa848260208601611d6e565b91505092915050565b5f5f60408385031215611e1957611e1861181f565b5b5f83013567ffffffffffffffff811115611e3657611e35611823565b5b611e4285828601611dd6565b925050602083013567ffffffffffffffff811115611e6357611e62611823565b5b611e6f85828601611b9b565b9150509250929050565b5f81519050919050565b5f82825260208201905092915050565b5f819050602082019050919050565b611eab81611881565b82525050565b5f611ebc8383611ea2565b60208301905092915050565b5f602082019050919050565b5f611ede82611e79565b611ee88185611e83565b9350611ef383611e93565b805f5b83811015611f23578151611f0a8882611eb1565b9750611f1583611ec8565b925050600181019050611ef6565b5085935050505092915050565b5f6020820190508181035f830152611f488184611ed4565b905092915050565b5f67ffffffffffffffff821115611f6a57611f69611a8c565b5b611f7382611a20565b9050602081019050919050565b5f611f92611f8d84611f50565b611aea565b905082815260208101848484011115611fae57611fad611bc8565b5b611fb9848285611bfc565b509392505050565b5f82601f830112611fd557611fd4611a88565b5b8135611fe5848260208601611f80565b91505092915050565b5f5f5f5f608085870312156120065761200561181f565b5b5f6120138782880161186d565b9450506020612024878288016118a0565b9350506040612035878288016118a0565b925050606085013567ffffffffffffffff81111561205657612055611823565b5b61206287828801611fc1565b91505092959194509250565b61207781611846565b82525050565b5f6020820190506120905f83018461206e565b92915050565b61209f8161199a565b81146120a9575f5ffd5b50565b5f813590506120ba81612096565b92915050565b5f5f604083850312156120d6576120d561181f565b5b5f6120e38582860161186d565b92505060206120f4858286016120ac565b9150509250929050565b5f5f604083850312156121145761211361181f565b5b5f6121218582860161186d565b92505060206121328582860161186d565b9150509250929050565b5f5f5f5f5f60a086880312156121555761215461181f565b5b5f6121628882890161186d565b95505060206121738882890161186d565b9450506040612184888289016118a0565b9350506060612195888289016118a0565b925050608086013567ffffffffffffffff8111156121b6576121b5611823565b5b6121c288828901611c4b565b9150509295509295909350565b5f602082840312156121e4576121e361181f565b5b5f6121f18482850161186d565b91505092915050565b7f4e487b71000000000000000000000000000000000000000000000000000000005f52602260045260245ffd5b5f600282049050600182168061223e57607f821691505b602082108103612251576122506121fa565b5b50919050565b7f525741546f6b656e697a65723a2055524920717565727920666f72206e6f6e655f8201527f78697374656e7420746f6b656e00000000000000000000000000000000000000602082015250565b5f6122b1602d83611a02565b91506122bc82612257565b604082019050919050565b5f6020820190508181035f8301526122de816122a5565b9050919050565b5f6040820190506122f85f8301856118f2565b61230560208301846118f2565b9392505050565b7f4e487b71000000000000000000000000000000000000000000000000000000005f52603260045260245ffd5b7f525741546f6b656e697a65723a204d65746164617461205552492069732072655f8201527f7175697265640000000000000000000000000000000000000000000000000000602082015250565b5f612393602683611a02565b915061239e82612339565b604082019050919050565b5f6020820190508181035f8301526123c081612387565b9050919050565b7f525741546f6b656e697a65723a20546f6b656e20494420616c726561647920655f8201527f7869737473000000000000000000000000000000000000000000000000000000602082015250565b5f612421602583611a02565b915061242c826123c7565b604082019050919050565b5f6020820190508181035f83015261244e81612415565b9050919050565b5f6040820190506124685f8301856118f2565b818103602083015261247a8184611a30565b90509392505050565b5f6040820190506124965f83018561206e565b6124a3602083018461206e565b9392505050565b5f819050815f5260205f209050919050565b5f6020601f8301049050919050565b5f82821b905092915050565b5f600883026125067fffffffffffffffffffffffffffffffffffffffffffffffffffffffffffffffff826124cb565b61251086836124cb565b95508019841693508086168417925050509392505050565b5f819050919050565b5f61254b61254661254184611881565b612528565b611881565b9050919050565b5f819050919050565b61256483612531565b61257861257082612552565b8484546124d7565b825550505050565b5f5f905090565b61258f612580565b61259a81848461255b565b505050565b5b818110156125bd576125b25f82612587565b6001810190506125a0565b5050565b601f821115612602576125d3816124aa565b6125dc846124bc565b810160208510156125eb578190505b6125ff6125f7856124bc565b83018261259f565b50505b505050565b5f82821c905092915050565b5f6126225f1984600802612607565b1980831691505092915050565b5f61263a8383612613565b9150826002028217905092915050565b612653826119f8565b67ffffffffffffffff81111561266c5761266b611a8c565b5b6126768254612227565b6126818282856125c1565b5f60209050601f8311600181146126b2575f84156126a0578287015190505b6126aa858261262f565b865550612711565b601f1984166126c0866124aa565b5f5b828110156126e7578489015182556001820191506020850194506020810190506126c2565b868310156127045784890151612700601f891682612613565b8355505b6001600288020188555050505b505050505050565b5f60808201905061272c5f83018761206e565b61273960208301866118f2565b61274660408301856118f2565b61275360608301846118f2565b95945050505050565b7f4e487b71000000000000000000000000000000000000000000000000000000005f52601160045260245ffd5b5f61279382611881565b915061279e83611881565b92508282019050808211156127b6576127b561275c565b5b92915050565b5f6040820190508181035f8301526127d48185611ed4565b905081810360208301526127e88184611ed4565b90509392505050565b5f81519050919050565b5f82825260208201905092915050565b5f612815826127f1565b61281f81856127fb565b935061282f818560208601611a12565b61283881611a20565b840191505092915050565b5f60a0820190506128565f83018861206e565b612863602083018761206e565b81810360408301526128758186611ed4565b905081810360608301526128898185611ed4565b9050818103608083015261289d818461280b565b90509695505050505050565b5f815190506128b781611945565b92915050565b5f602082840312156128d2576128d161181f565b5b5f6128df848285016128a9565b91505092915050565b5f60a0820190506128fb5f83018861206e565b612908602083018761206e565b61291560408301866118f2565b61292260608301856118f2565b8181036080830152612934818461280b565b9050969550505050505056fea2646970667358221220196e3129a469494062f90c1e1bae3233bc224b44ee6f711165ff4212663661d864736f6c634300081e0033","linkReferences":{}},"methodIdentifiers":{"balanceOf(address,uint256)":"00fdd58e","balanceOfBatch(address[],uint256[])":"4e1273f4","isApprovedForAll(address,address)":"e985e9c5","mintRWA(address,uint256,uint256,string)":"5d77c0ca","owner()":"8da5cb5b","renounceOwnership()":"715018a6","safeBatchTransferFrom(address,address,uint256[],uint256[],bytes)":"2eb2c2d6","safeTransferFrom(address,address,uint256,uint256,bytes)":"f242432a","setApprovalForAll(address,bool)":"a22cb465","supportsInterface(bytes4)":"01ffc9a7","transferOwnership(address)":"f2fde38b","uri(uint256)":"0e89341c"},"id":36}