{"abi":[{"type":"constructor","inputs":[{"name":"baseURI","type":"string","internalType":"string"},{"name":"initialOwner","type":"address","internalType":"address"}],"stateMutability":"nonpayable"},{"type":"function","name":"balanceOf","inputs":[{"name":"account","type":"address","internalType":"address"},{"name":"id","type":"uint256","internalType":"uint256"}],"outputs":[{"name":"","type":"uint256","internalType":"uint256"}],"stateMutability":"view"},{"type":"function","name":"balanceOfBatch","inputs":[{"name":"accounts","type":"address[]","internalType":"address[]"},{"name":"ids","type":"uint256[]","internalType":"uint256[]"}],"outputs":[{"name":"","type":"uint256[]","internalType":"uint256[]"}],"stateMutability":"view"},{"type":"function","name":"batchBlacklist","inputs":[{"name":"accounts","type":"address[]","internalType":"address[]"},{"name":"status","type":"bool","internalType":"bool"}],"outputs":[],"stateMutability":"nonpayable"},{"type":"function","name":"batchWhitelist","inputs":[{"name":"accounts","type":"address[]","internalType":"address[]"},{"name":"status","type":"bool","internalType":"bool"}],"outputs":[],"stateMutability":"nonpayable"},{"type":"function","name":"blacklistEnabled","inputs":[],"outputs":[{"name":"","type":"bool","internalType":"bool"}],"stateMutability":"view"},{"type":"function","name":"getTokenCap","inputs":[{"name":"tokenId","type":"uint256","internalType":"uint256"}],"outputs":[{"name":"","type":"uint256","internalType":"uint256"}],"stateMutability":"view"},{"type":"function","name":"getTokenSupply","inputs":[{"name":"tokenId","type":"uint256","internalType":"uint256"}],"outputs":[{"name":"","type":"uint256","internalType":"uint256"}],"stateMutability":"view"},{"type":"function","name":"initialize","inputs":[{"name":"baseURI","type":"string","internalType":"string"},{"name":"initialOwner","type":"address","internalType":"address"}],"outputs":[],"stateMutability":"nonpayable"},{"type":"function","name":"initialized","inputs":[],"outputs":[{"name":"","type":"bool","internalType":"bool"}],"stateMutability":"view"},{"type":"function","name":"isApprovedForAll","inputs":[{"name":"account","type":"address","internalType":"address"},{"name":"operator","type":"address","internalType":"address"}],"outputs":[{"name":"","type":"bool","internalType":"bool"}],"stateMutability":"view"},{"type":"function","name":"isBlacklisted","inputs":[{"name":"account","type":"address","internalType":"address"}],"outputs":[{"name":"","type":"bool","internalType":"bool"}],"stateMutability":"view"},{"type":"function","name":"isWhitelisted","inputs":[{"name":"account","type":"address","internalType":"address"}],"outputs":[{"name":"","type":"bool","internalType":"bool"}],"stateMutability":"view"},{"type":"function","name":"mintRWA","inputs":[{"name":"to","type":"address","internalType":"address"},{"name":"tokenId","type":"uint256","internalType":"uint256"},{"name":"amount","type":"uint256","internalType":"uint256"},{"name":"metadataURI","type":"string","internalType":"string"}],"outputs":[],"stateMutability":"nonpayable"},{"type":"function","name":"nonces","inputs":[{"name":"owner","type":"address","internalType":"address"}],"outputs":[{"name":"","type":"uint256","internalType":"uint256"}],"stateMutability":"view"},{"type":"function","name":"owner","inputs":[],"outputs":[{"name":"","type":"address","internalType":"address"}],"stateMutability":"view"},{"type":"function","name":"permit","inputs":[{"name":"owner","type":"address","internalType":"address"},{"name":"operator","type":"address","internalType":"address"},{"name":"deadline","type":"uint256","internalType":"uint256"},{"name":"v","type":"uint8","internalType":"uint8"},{"name":"r","type":"bytes32","internalType":"bytes32"},{"name":"s","type":"bytes32","internalType":"bytes32"}],"outputs":[],"stateMutability":"nonpayable"},{"type":"function","name":"renounceOwnership","inputs":[],"outputs":[],"stateMutability":"nonpayable"},{"type":"function","name":"royaltyInfo","inputs":[{"name":"tokenId","type":"uint256","internalType":"uint256"},{"name":"salePrice","type":"uint256","internalType":"uint256"}],"outputs":[{"name":"","type":"address","internalType":"address"},{"name":"","type":"uint256","internalType":"uint256"}],"stateMutability":"view"},{"type":"function","name":"safeBatchTransferFrom","inputs":[{"name":"from","type":"address","internalType":"address"},{"name":"to","type":"address","internalType":"address"},{"name":"ids","type":"uint256[]","internalType":"uint256[]"},{"name":"values","type":"uint256[]","internalType":"uint256[]"},{"name":"data","type":"bytes","internalType":"bytes"}],"outputs":[],"stateMutability":"nonpayable"},{"type":"function","name":"safeTransferFrom","inputs":[{"name":"from","type":"address","internalType":"address"},{"name":"to","type":"address","internalType":"address"},{"name":"id","type":"uint256","internalType":"uint256"},{"name":"value","type":"uint256","internalType":"uint256"},{"name":"data","type":"bytes","internalType":"bytes"}],"outputs":[],"stateMutability":"nonpayable"},{"type":"function","name":"setApprovalForAll","inputs":[{"name":"operator","type":"address","internalType":"address"},{"name":"approved","type":"bool","internalType":"bool"}],"outputs":[],"stateMutability":"nonpayable"},{"type":"function","name":"setBlacklist","inputs":[{"name":"account","type":"address","internalType":"address"},{"name":"status","type":"bool","internalType":"bool"}],"outputs":[],"stateMutability":"nonpayable"},{"type":"function","name":"setBlacklistEnabled","inputs":[{"name":"enabled","type":"bool","internalType":"bool"}],"outputs":[],"stateMutability":"nonpayable"},{"type":"function","name":"setDefaultRoyalty","inputs":[{"name":"recipient","type":"address","internalType":"address"},{"name":"royaltyBasisPoints","type":"uint96","internalType":"uint96"}],"outputs":[],"stateMutability":"nonpayable"},{"type":"function","name":"setDefaultSupplyCap","inputs":[{"name":"cap","type":"uint256","internalType":"uint256"}],"outputs":[],"stateMutability":"nonpayable"},{"type":"function","name":"setTokenCap","inputs":[{"name":"tokenId","type":"uint256","internalType":"uint256"},{"name":"cap","type":"uint256","internalType":"uint256"}],"outputs":[],"stateMutability":"nonpayable"},{"type":"function","name":"setTokenRoyalty","inputs":[{"name":"tokenId","type":"uint256","internalType":"uint256"},{"name":"recipient","type":"address","internalType":"address"},{"name":"royaltyBasisPoints","type":"uint96","internalType":"uint96"}],"outputs":[],"stateMutability":"nonpayable"},{"type":"function","name":"setWhitelist","inputs":[{"name":"account","type":"address","internalType":"address"},{"name":"status","type":"bool","internalType":"bool"}],"outputs":[],"stateMutability":"nonpayable"},{"type":"function","name":"setWhitelistEnabled","inputs":[{"name":"enabled","type":"bool","internalType":"bool"}],"outputs":[],"stateMutability":"nonpayable"},{"type":"function","name":"supportsInterface","inputs":[{"name":"interfaceId","type":"bytes4","internalType":"bytes4"}],"outputs":[{"name":"","type":"bool","internalType":"bool"}],"stateMutability":"view"},{"type":"function","name":"transferOwnership","inputs":[{"name":"newOwner","type":"address","internalType":"address"}],"outputs":[],"stateMutability":"nonpayable"},{"type":"function","name":"uri","inputs":[{"name":"tokenId","type":"uint256","internalType":"uint256"}],"outputs":[{"name":"","type":"string","internalType":"string"}],"stateMutability":"view"},{"type":"function","name":"whitelistEnabled","inputs":[],"outputs":[{"name":"","type":"bool","internalType":"bool"}],"stateMutability":"view"},{"type":"event","name":"AddressBlacklisted","inputs":[{"name":"account","type":"address","indexed":true,"internalType":"address"},{"name":"status","type":"bool","indexed":false,"internalType":"bool"}],"anonymous":false},{"type":"event","name":"AddressWhitelisted","inputs":[{"name":"account","type":"address","indexed":true,"internalType":"address"},{"name":"status","type":"bool","indexed":false,"internalType":"bool"}],"anonymous":false},{"type":"event","name":"ApprovalForAll","inputs":[{"name":"account","type":"address","indexed":true,"internalType":"address"},{"name":"operator","type":"address","indexed":true,"internalType":"address"},{"name":"approved","type":"bool","indexed":false,"internalType":"bool"}],"anonymous":false},{"type":"event","name":"BlacklistEnabled","inputs":[{"name":"enabled","type":"bool","indexed":false,"internalType":"bool"}],"anonymous":false},{"type":"event","name":"DefaultRoyaltySet","inputs":[{"name":"recipient","type":"address","indexed":true,"internalType":"address"},{"name":"royaltyBasisPoints","type":"uint96","indexed":false,"internalType":"uint96"}],"anonymous":false},{"type":"event","name":"DefaultSupplyCapUpdated","inputs":[{"name":"oldCap","type":"uint256","indexed":false,"internalType":"uint256"},{"name":"newCap","type":"uint256","indexed":false,"internalType":"uint256"}],"anonymous":false},{"type":"event","name":"DeploymentFeeUpdated","inputs":[{"name":"oldFee","type":"uint256","indexed":false,"internalType":"uint256"},{"name":"newFee","type":"uint256","indexed":false,"internalType":"uint256"}],"anonymous":false},{"type":"event","name":"ImplementationUpdated","inputs":[{"name":"oldImpl","type":"address","indexed":true,"internalType":"address"},{"name":"newImpl","type":"address","indexed":true,"internalType":"address"}],"anonymous":false},{"type":"event","name":"OwnershipTransferred","inputs":[{"name":"previousOwner","type":"address","indexed":true,"internalType":"address"},{"name":"newOwner","type":"address","indexed":true,"internalType":"address"}],"anonymous":false},{"type":"event","name":"SupplyCapUpdated","inputs":[{"name":"tokenId","type":"uint256","indexed":true,"internalType":"uint256"},{"name":"oldCap","type":"uint256","indexed":false,"internalType":"uint256"},{"name":"newCap","type":"uint256","indexed":false,"internalType":"uint256"}],"anonymous":false},{"type":"event","name":"TokenMinted","inputs":[{"name":"to","type":"address","indexed":true,"internalType":"address"},{"name":"tokenId","type":"uint256","indexed":true,"internalType":"uint256"},{"name":"amount","type":"uint256","indexed":false,"internalType":"uint256"},{"name":"metadataURI","type":"string","indexed":false,"internalType":"string"}],"anonymous":false},{"type":"event","name":"TokenRoyaltySet","inputs":[{"name":"tokenId","type":"uint256","indexed":true,"internalType":"uint256"},{"name":"recipient","type":"address","indexed":true,"internalType":"address"},{"name":"royaltyBasisPoints","type":"uint96","indexed":false,"internalType":"uint96"}],"anonymous":false},{"type":"event","name":"TokenTransferred","inputs":[{"name":"from","type":"address","indexed":true,"internalType":"address"},{"name":"to","type":"address","indexed":true,"internalType":"address"},{"name":"tokenId","type":"uint256","indexed":true,"internalType":"uint256"},{"name":"amount","type":"uint256","indexed":false,"internalType":"uint256"}],"anonymous":false},{"type":"event","name":"TokenURISet","inputs":[{"name":"tokenId","type":"uint256","indexed":true,"internalType":"uint256"},{"name":"metadataURI","type":"string","indexed":false,"internalType":"string"}],"anonymous":false},{"type":"event","name":"TransferBatch","inputs":[{"name":"operator","type":"address","indexed":true,"internalType":"address"},{"name":"from","type":"address","indexed":true,"internalType":"address"},{"name":"to","type":"address","indexed":true,"internalType":"address"},{"name":"ids","type":"uint256[]","indexed":false,"internalType":"uint256[]"},{"name":"values","type":"uint256[]","indexed":false,"internalType":"uint256[]"}],"anonymous":false},{"type":"event","name":"TransferSingle","inputs":[{"name":"operator","type":"address","indexed":true,"internalType":"address"},{"name":"from","type":"address","indexed":true,"internalType":"address"},{"name":"to","type":"address","indexed":true,"internalType":"address"},{"name":"id","type":"uint256","indexed":false,"internalType":"uint256"},{"name":"value","type":"uint256","indexed":false,"internalType":"uint256"}],"anonymous":false},{"type":"event","name":"URI","inputs":[{"name":"value","type":"string","indexed":false,"internalType":"string"},{"name":"id","type":"uint256","indexed":true,"internalType":"uint256"}],"anonymous":false},{"type":"event","name":"WhitelistEnabled","inputs":[{"name":"enabled","type":"bool","indexed":false,"internalType":"bool"}],"anonymous":false},{"type":"error","name":"AlreadyInitialized","inputs":[]},{"type":"error","name":"Blacklisted","inputs":[{"name":"account","type":"address","internalType":"address"}]},{"type":"error","name":"ECDSAInvalidSignature","inputs":[]},{"type":"error","name":"ECDSAInvalidSignatureLength","inputs":[{"name":"length","type":"uint256","internalType":"uint256"}]},{"type":"error","name":"ECDSAInvalidSignatureS","inputs":[{"name":"s","type":"bytes32","internalType":"bytes32"}]},{"type":"error","name":"ERC1155InsufficientBalance","inputs":[{"name":"sender","type":"address","internalType":"address"},{"name":"balance","type":"uint256","internalType":"uint256"},{"name":"needed","type":"uint256","internalType":"uint256"},{"name":"tokenId","type":"uint256","internalType":"uint256"}]},{"type":"error","name":"ERC1155InvalidApprover","inputs":[{"name":"approver","type":"address","internalType":"address"}]},{"type":"error","name":"ERC1155InvalidArrayLength","inputs":[{"name":"idsLength","type":"uint256","internalType":"uint256"},{"name":"valuesLength","type":"uint256","internalType":"uint256"}]},{"type":"error","name":"ERC1155InvalidOperator","inputs":[{"name":"operator","type":"address","internalType":"address"}]},{"type":"error","name":"ERC1155InvalidReceiver","inputs":[{"name":"receiver","type":"address","internalType":"address"}]},{"type":"error","name":"ERC1155InvalidSender","inputs":[{"name":"sender","type":"address","internalType":"address"}]},{"type":"error","name":"ERC1155MissingApprovalForAll","inputs":[{"name":"operator","type":"address","internalType":"address"},{"name":"owner","type":"address","internalType":"address"}]},{"type":"error","name":"EmptyMetadataURI","inputs":[]},{"type":"error","name":"InvalidCap","inputs":[]},{"type":"error","name":"InvalidSignature","inputs":[]},{"type":"error","name":"NotWhitelisted","inputs":[{"name":"account","type":"address","internalType":"address"}]},{"type":"error","name":"OwnableInvalidOwner","inputs":[{"name":"owner","type":"address","internalType":"address"}]},{"type":"error","name":"OwnableUnauthorizedAccount","inputs":[{"name":"account","type":"address","internalType":"address"}]},{"type":"error","name":"PermitExpired","inputs":[{"name":"deadline","type":"uint256","internalType":"uint256"}]},{"type":"error","name":"RoyaltyExceedsMax","inputs":[{"name":"royaltyBasisPoints","type":"uint96","internalType":"uint96"}]},{"type":"error","name":"SupplyCapExceeded","inputs":[{"name":"tokenId","type":"uint256","internalType":"uint256"},{"name":"currentSupply","type":"uint256","internalType":"uint256"},{"name":"cap","type":"uint256","internalType":"uint256"}]},{"type":"error","name":"TokenAlreadyExists","inputs":[{"name":"tokenId","type":"uint256","internalType":"uint256"}]},{"type":"error","name":"TokenDoesNotExist","inputs":[{"name":"tokenId","type":"uint256","internalType":"uint256"}]},{"type":"error","name":"UnauthorizedAccess","inputs":[{"name":"caller","type":"address","internalType":"address"}]},{"type":"error","name":"ZeroAddress","inputs":[]}],"bytecode":{"object":"0x608060405260fa600d60146101000a8154816bffffffffffffffffffffffff02191690836bffffffffffffffffffffffff160217905550348015610041575f5ffd5b50604051614eb2380380614eb2833981810160405281019061006391906103d4565b80826100748161015760201b60201c565b505f73ffffffffffffffffffffffffffffffffffffffff168173ffffffffffffffffffffffffffffffffffffffff16036100e5575f6040517f1e4fbdf70000000000000000000000000000000000000000000000000000000081526004016100dc919061043d565b60405180910390fd5b6100f48161016a60201b60201c565b506001600360146101000a81548160ff02191690831515021790555080600d5f6101000a81548173ffffffffffffffffffffffffffffffffffffffff021916908373ffffffffffffffffffffffffffffffffffffffff1602179055505050610735565b80600290816101669190610666565b5050565b5f60035f9054906101000a900473ffffffffffffffffffffffffffffffffffffffff1690508160035f6101000a81548173ffffffffffffffffffffffffffffffffffffffff021916908373ffffffffffffffffffffffffffffffffffffffff1602179055508173ffffffffffffffffffffffffffffffffffffffff168173ffffffffffffffffffffffffffffffffffffffff167f8be0079c531659141344cd1fd0a4f28419497f9722a3daafe3b4186f6b6457e060405160405180910390a35050565b5f604051905090565b5f5ffd5b5f5ffd5b5f5ffd5b5f5ffd5b5f601f19601f8301169050919050565b7f4e487b71000000000000000000000000000000000000000000000000000000005f52604160045260245ffd5b61028c82610246565b810181811067ffffffffffffffff821117156102ab576102aa610256565b5b80604052505050565b5f6102bd61022d565b90506102c98282610283565b919050565b5f67ffffffffffffffff8211156102e8576102e7610256565b5b6102f182610246565b9050602081019050919050565b8281835e5f83830152505050565b5f61031e610319846102ce565b6102b4565b90508281526020810184848401111561033a57610339610242565b5b6103458482856102fe565b509392505050565b5f82601f8301126103615761036061023e565b5b815161037184826020860161030c565b91505092915050565b5f73ffffffffffffffffffffffffffffffffffffffff82169050919050565b5f6103a38261037a565b9050919050565b6103b381610399565b81146103bd575f5ffd5b50565b5f815190506103ce816103aa565b92915050565b5f5f604083850312156103ea576103e9610236565b5b5f83015167ffffffffffffffff8111156104075761040661023a565b5b6104138582860161034d565b9250506020610424858286016103c0565b9150509250929050565b61043781610399565b82525050565b5f6020820190506104505f83018461042e565b92915050565b5f81519050919050565b7f4e487b71000000000000000000000000000000000000000000000000000000005f52602260045260245ffd5b5f60028204905060018216806104a457607f821691505b6020821081036104b7576104b6610460565b5b50919050565b5f819050815f5260205f209050919050565b5f6020601f8301049050919050565b5f82821b905092915050565b5f600883026105197fffffffffffffffffffffffffffffffffffffffffffffffffffffffffffffffff826104de565b61052386836104de565b95508019841693508086168417925050509392505050565b5f819050919050565b5f819050919050565b5f61056761056261055d8461053b565b610544565b61053b565b9050919050565b5f819050919050565b6105808361054d565b61059461058c8261056e565b8484546104ea565b825550505050565b5f5f905090565b6105ab61059c565b6105b6818484610577565b505050565b5b818110156105d9576105ce5f826105a3565b6001810190506105bc565b5050565b601f82111561061e576105ef816104bd565b6105f8846104cf565b81016020851015610607578190505b61061b610613856104cf565b8301826105bb565b50505b505050565b5f82821c905092915050565b5f61063e5f1984600802610623565b1980831691505092915050565b5f610656838361062f565b9150826002028217905092915050565b61066f82610456565b67ffffffffffffffff81111561068857610687610256565b5b610692825461048d565b61069d8282856105dd565b5f60209050601f8311600181146106ce575f84156106bc578287015190505b6106c6858261064b565b86555061072d565b601f1984166106dc866104bd565b5f5b82811015610703578489015182556001820191506020850194506020810190506106de565b86831015610720578489015161071c601f89168261062f565b8355505b6001600288020188555050505b505050505050565b614770806107425f395ff3fe608060405234801561000f575f5ffd5b50600436106101f8575f3560e01c806351fb012d116101185780638da5cb5b116100ab578063e569e8ec1161007a578063e569e8ec146105b7578063e985e9c5146105d3578063f242432a14610603578063f2fde38b1461061f578063fe575a871461063b576101f8565b80638da5cb5b14610543578063a22cb46514610561578063b5adce3f1461057d578063bffb691d14610599576101f8565b80635d77c0ca116100e75780635d77c0ca146104d1578063715018a6146104ed5780637ab4339d146104f75780637ecebe0014610513576101f8565b806351fb012d1461044b57806352278e481461046957806353d6fd59146104995780635944c753146104b5576101f8565b806319b88edb116101905780632eb2c2d61161015f5780632eb2c2d6146103b35780633af32abf146103cf57806348613c28146103ff5780634e1273f41461041b576101f8565b806319b88edb1461031a5780631a2266b01461034a578063230fe6e5146103665780632a55205a14610382576101f8565b80630e89341c116101cc5780630e89341c146102945780631201cbd0146102c4578063153b0d1e146102e0578063158ef93e146102fc576101f8565b8062fdd58e146101fc57806301ffc9a71461022c57806304634d8d1461025c578063052d9e7e14610278575b5f5ffd5b610216600480360381019061021191906131c2565b61066b565b604051610223919061320f565b60405180910390f35b6102466004803603810190610241919061327d565b6106c0565b60405161025391906132c2565b60405180910390f35b6102766004803603810190610271919061331c565b610739565b005b610292600480360381019061028d9190613384565b610859565b005b6102ae60048036038101906102a991906133af565b6108b4565b6040516102bb919061344a565b60405180910390f35b6102de60048036038101906102d99190613384565b6109b6565b005b6102fa60048036038101906102f5919061346a565b610a12565b005b610304610b25565b60405161031191906132c2565b60405180910390f35b610334600480360381019061032f91906133af565b610b38565b604051610341919061320f565b60405180910390f35b610364600480360381019061035f9190613509565b610b52565b005b610380600480360381019061037b9190613566565b610cc8565b005b61039c60048036038101906103979190613566565b610d3a565b6040516103aa9291906135b3565b60405180910390f35b6103cd60048036038101906103c891906137c2565b610f5f565b005b6103e960048036038101906103e4919061388d565b610f84565b6040516103f691906132c2565b60405180910390f35b61041960048036038101906104149190613921565b610fd6565b005b61043560048036038101906104309190613a6a565b611154565b6040516104429190613b97565b60405180910390f35b61045361125e565b60405161046091906132c2565b60405180910390f35b610483600480360381019061047e91906133af565b611273565b604051610490919061320f565b60405180910390f35b6104b360048036038101906104ae919061346a565b611284565b005b6104cf60048036038101906104ca9190613bb7565b611397565b005b6104eb60048036038101906104e69190613ca5565b61150f565b005b6104f561189d565b005b610511600480360381019061050c9190613d25565b6118b0565b005b61052d6004803603810190610528919061388d565b611968565b60405161053a919061320f565b60405180910390f35b61054b6119ae565b6040516105589190613d7f565b60405180910390f35b61057b6004803603810190610576919061346a565b6119d6565b005b61059760048036038101906105929190613509565b6119ec565b005b6105a1611b62565b6040516105ae91906132c2565b60405180910390f35b6105d160048036038101906105cc91906133af565b611b78565b005b6105ed60048036038101906105e89190613d98565b611be4565b6040516105fa91906132c2565b60405180910390f35b61061d60048036038101906106189190613dd6565b611c72565b005b6106396004803603810190610634919061388d565b611c97565b005b6106556004803603810190610650919061388d565b611d1b565b60405161066291906132c2565b60405180910390f35b5f5f5f8381526020019081526020015f205f8473ffffffffffffffffffffffffffffffffffffffff1673ffffffffffffffffffffffffffffffffffffffff1681526020019081526020015f2054905092915050565b5f7f2a55205a000000000000000000000000000000000000000000000000000000007bffffffffffffffffffffffffffffffffffffffffffffffffffffffff1916827bffffffffffffffffffffffffffffffffffffffffffffffffffffffff19161480610732575061073182611d6d565b5b9050919050565b610741611e4e565b612710816bffffffffffffffffffffffff16111561079657806040517fb6e111ba00000000000000000000000000000000000000000000000000000000815260040161078d9190613e78565b60405180910390fd5b81600d5f6101000a81548173ffffffffffffffffffffffffffffffffffffffff021916908373ffffffffffffffffffffffffffffffffffffffff16021790555080600d60146101000a8154816bffffffffffffffffffffffff02191690836bffffffffffffffffffffffff1602179055508173ffffffffffffffffffffffffffffffffffffffff167f8a8bae378cb731c5c40b632330c6836c2f916f48edb967699c86736f9a6a76ef8260405161084d9190613e78565b60405180910390a25050565b610861611e4e565b80600a5f6101000a81548160ff0219169083151502179055507f9bea0dd3cae4438dc4c54c3110002aedc380f4075b6edae73ae0536105a2008a816040516108a991906132c2565b60405180910390a150565b60605f600b5f8481526020019081526020015f2080546108d390613ebe565b90500361091757816040517fc927e5bf00000000000000000000000000000000000000000000000000000000815260040161090e919061320f565b60405180910390fd5b600b5f8381526020019081526020015f20805461093390613ebe565b80601f016020809104026020016040519081016040528092919081815260200182805461095f90613ebe565b80156109aa5780601f10610981576101008083540402835291602001916109aa565b820191905f5260205f20905b81548152906001019060200180831161098d57829003601f168201915b50505050509050919050565b6109be611e4e565b80600a60016101000a81548160ff0219169083151502179055507f39e8dfc7b756fd45ad80b9800a7b9f35a5de88b69f9b2ef73830afe4212682d181604051610a0791906132c2565b60405180910390a150565b610a1a611e4e565b5f73ffffffffffffffffffffffffffffffffffffffff168273ffffffffffffffffffffffffffffffffffffffff1603610a7f576040517fd92e233d00000000000000000000000000000000000000000000000000000000815260040160405180910390fd5b8060095f8473ffffffffffffffffffffffffffffffffffffffff1673ffffffffffffffffffffffffffffffffffffffff1681526020019081526020015f205f6101000a81548160ff0219169083151502179055508173ffffffffffffffffffffffffffffffffffffffff167f97b7af35c8c05eca90f543eb78b16fdf2664d3e6c9a907286f310647d9813b7182604051610b1991906132c2565b60405180910390a25050565b600360149054906101000a900460ff1681565b5f60045f8381526020019081526020015f20549050919050565b610b5a611e4e565b5f5f90505b83839050811015610cc2575f73ffffffffffffffffffffffffffffffffffffffff16848483818110610b9457610b93613eee565b5b9050602002016020810190610ba9919061388d565b73ffffffffffffffffffffffffffffffffffffffff1614610cb5578160095f868685818110610bdb57610bda613eee565b5b9050602002016020810190610bf0919061388d565b73ffffffffffffffffffffffffffffffffffffffff1673ffffffffffffffffffffffffffffffffffffffff1681526020019081526020015f205f6101000a81548160ff021916908315150217905550838382818110610c5257610c51613eee565b5b9050602002016020810190610c67919061388d565b73ffffffffffffffffffffffffffffffffffffffff167f97b7af35c8c05eca90f543eb78b16fdf2664d3e6c9a907286f310647d9813b7183604051610cac91906132c2565b60405180910390a25b8080600101915050610b5f565b50505050565b610cd0611e4e565b5f60055f8481526020019081526020015f205490508160055f8581526020019081526020015f2081905550827fcaa0e97f9fe323a4de2e9d815de4f7f3c527c0c07607e968d758c30d17998a828284604051610d2d929190613f1b565b60405180910390a2505050565b5f5f5f600c5f8681526020019081526020015f206040518060400160405290815f82015f9054906101000a900473ffffffffffffffffffffffffffffffffffffffff1673ffffffffffffffffffffffffffffffffffffffff1673ffffffffffffffffffffffffffffffffffffffff1681526020015f820160149054906101000a90046bffffffffffffffffffffffff166bffffffffffffffffffffffff166bffffffffffffffffffffffff168152505090505f73ffffffffffffffffffffffffffffffffffffffff16815f015173ffffffffffffffffffffffffffffffffffffffff1603610f1f575f73ffffffffffffffffffffffffffffffffffffffff16600d5f9054906101000a900473ffffffffffffffffffffffffffffffffffffffff1673ffffffffffffffffffffffffffffffffffffffff1614610e9d57600d5f9054906101000a900473ffffffffffffffffffffffffffffffffffffffff16610ea6565b610ea56119ae565b5b815f019073ffffffffffffffffffffffffffffffffffffffff16908173ffffffffffffffffffffffffffffffffffffffff1681525050600d60149054906101000a90046bffffffffffffffffffffffff1681602001906bffffffffffffffffffffffff1690816bffffffffffffffffffffffff16815250505b5f61271082602001516bffffffffffffffffffffffff1686610f419190613f6f565b610f4b9190613fdd565b9050815f0151819350935050509250929050565b610f70610f6a611ed5565b86611edc565b610f7d8585858585611f67565b5050505050565b5f60085f8373ffffffffffffffffffffffffffffffffffffffff1673ffffffffffffffffffffffffffffffffffffffff1681526020019081526020015f205f9054906101000a900460ff169050919050565b8342111561101b57836040517f9e96b26f000000000000000000000000000000000000000000000000000000008152600401611012919061320f565b60405180910390fd5b5f7f16efd59368a9abbac9954a7e691dd7d75c14d374c4fd2e0ea5eb8eebe3cfc3fd8787600e5f8b73ffffffffffffffffffffffffffffffffffffffff1673ffffffffffffffffffffffffffffffffffffffff1681526020019081526020015f205f81548092919061108c9061400d565b91905055886040516020016110a5959493929190614063565b6040516020818303038152906040528051906020012090505f6110c78261205d565b90505f6110d682878787612095565b90508873ffffffffffffffffffffffffffffffffffffffff168173ffffffffffffffffffffffffffffffffffffffff161461113d576040517f8baa579f00000000000000000000000000000000000000000000000000000000815260040160405180910390fd5b611149898960016120c3565b505050505050505050565b606081518351146111a057815183516040517f5b059991000000000000000000000000000000000000000000000000000000008152600401611197929190613f1b565b60405180910390fd5b5f835167ffffffffffffffff8111156111bc576111bb6135da565b5b6040519080825280602002602001820160405280156111ea5781602001602082028036833780820191505090505b5090505f5f90505b845181101561125357611229611211828761229c90919063ffffffff16565b61122483876122af90919063ffffffff16565b61066b565b82828151811061123c5761123b613eee565b5b6020026020010181815250508060010190506111f2565b508091505092915050565b5f600a5f9054906101000a900460ff16905090565b5f61127d826122c2565b9050919050565b61128c611e4e565b5f73ffffffffffffffffffffffffffffffffffffffff168273ffffffffffffffffffffffffffffffffffffffff16036112f1576040517fd92e233d00000000000000000000000000000000000000000000000000000000815260040160405180910390fd5b8060085f8473ffffffffffffffffffffffffffffffffffffffff1673ffffffffffffffffffffffffffffffffffffffff1681526020019081526020015f205f6101000a81548160ff0219169083151502179055508173ffffffffffffffffffffffffffffffffffffffff167faf367c7d20ce5b2ab6da56afd0c9c39b00ba995263c60292a3e1ee3781fd48858260405161138b91906132c2565b60405180910390a25050565b61139f611e4e565b612710816bffffffffffffffffffffffff1611156113f457806040517fb6e111ba0000000000000000000000000000000000000000000000000000000081526004016113eb9190613e78565b60405180910390fd5b60405180604001604052808373ffffffffffffffffffffffffffffffffffffffff168152602001826bffffffffffffffffffffffff16815250600c5f8581526020019081526020015f205f820151815f015f6101000a81548173ffffffffffffffffffffffffffffffffffffffff021916908373ffffffffffffffffffffffffffffffffffffffff1602179055506020820151815f0160146101000a8154816bffffffffffffffffffffffff02191690836bffffffffffffffffffffffff1602179055509050508173ffffffffffffffffffffffffffffffffffffffff16837f7f5b076c952c0ec86e5425963c1326dd0f03a3595c19f81d765e8ff559a6e33c836040516115029190613e78565b60405180910390a3505050565b83600a5f9054906101000a900460ff168015611572575060085f8273ffffffffffffffffffffffffffffffffffffffff1673ffffffffffffffffffffffffffffffffffffffff1681526020019081526020015f205f9054906101000a900460ff16155b156115b457806040517fdf17e3160000000000000000000000000000000000000000000000000000000081526004016115ab9190613d7f565b60405180910390fd5b84600a60019054906101000a900460ff168015611617575060095f8273ffffffffffffffffffffffffffffffffffffffff1673ffffffffffffffffffffffffffffffffffffffff1681526020019081526020015f205f9054906101000a900460ff165b1561165957806040517fffa4e6180000000000000000000000000000000000000000000000000000000081526004016116509190613d7f565b60405180910390fd5b6116616119ae565b73ffffffffffffffffffffffffffffffffffffffff163373ffffffffffffffffffffffffffffffffffffffff16146116d057336040517fdccef9640000000000000000000000000000000000000000000000000000000081526004016116c79190613d7f565b60405180910390fd5b5f83510361170a576040517f251c1d8200000000000000000000000000000000000000000000000000000000815260040160405180910390fd5b5f600b5f8781526020019081526020015f20805461172790613ebe565b90501461176b57846040517f6025413b000000000000000000000000000000000000000000000000000000008152600401611762919061320f565b60405180910390fd5b5f611775866122c2565b90505f811180156117a15750808560045f8981526020019081526020015f205461179f91906140b4565b115b156117f8578560045f8881526020019081526020015f2054826040517f36a62f1f0000000000000000000000000000000000000000000000000000000081526004016117ef939291906140e7565b60405180910390fd5b61181287878760405180602001604052805f81525061230c565b8460045f8881526020019081526020015f205f82825461183291906140b4565b9250508190555061184386856123a2565b858773ffffffffffffffffffffffffffffffffffffffff167ffd8041fd7e4d7047a13bde415402e7278ad32792f9bdf46102a274181893cc94878760405161188c92919061411c565b60405180910390a350505050505050565b6118a5611e4e565b6118ae5f6123fd565b565b600360149054906101000a900460ff16156118f7576040517f0dc149f000000000000000000000000000000000000000000000000000000000815260040160405180910390fd5b6001600360146101000a81548160ff02191690831515021790555061191b826124c0565b611924816123fd565b80600d5f6101000a81548173ffffffffffffffffffffffffffffffffffffffff021916908373ffffffffffffffffffffffffffffffffffffffff1602179055505050565b5f600e5f8373ffffffffffffffffffffffffffffffffffffffff1673ffffffffffffffffffffffffffffffffffffffff1681526020019081526020015f20549050919050565b5f60035f9054906101000a900473ffffffffffffffffffffffffffffffffffffffff16905090565b6119e86119e1611ed5565b83836120c3565b5050565b6119f4611e4e565b5f5f90505b83839050811015611b5c575f73ffffffffffffffffffffffffffffffffffffffff16848483818110611a2e57611a2d613eee565b5b9050602002016020810190611a43919061388d565b73ffffffffffffffffffffffffffffffffffffffff1614611b4f578160085f868685818110611a7557611a74613eee565b5b9050602002016020810190611a8a919061388d565b73ffffffffffffffffffffffffffffffffffffffff1673ffffffffffffffffffffffffffffffffffffffff1681526020019081526020015f205f6101000a81548160ff021916908315150217905550838382818110611aec57611aeb613eee565b5b9050602002016020810190611b01919061388d565b73ffffffffffffffffffffffffffffffffffffffff167faf367c7d20ce5b2ab6da56afd0c9c39b00ba995263c60292a3e1ee3781fd488583604051611b4691906132c2565b60405180910390a25b80806001019150506119f9565b50505050565b5f600a60019054906101000a900460ff16905090565b611b80611e4e565b5f600754905081600781905550600160065f6101000a81548160ff0219169083151502179055507f15ec14cae1bd345352d6289cfcef3194bb906692b033ae6fd93490079263c75d8183604051611bd8929190613f1b565b60405180910390a15050565b5f60015f8473ffffffffffffffffffffffffffffffffffffffff1673ffffffffffffffffffffffffffffffffffffffff1681526020019081526020015f205f8373ffffffffffffffffffffffffffffffffffffffff1673ffffffffffffffffffffffffffffffffffffffff1681526020019081526020015f205f9054906101000a900460ff16905092915050565b611c83611c7d611ed5565b86611edc565b611c9085858585856124d3565b5050505050565b611c9f611e4e565b5f73ffffffffffffffffffffffffffffffffffffffff168173ffffffffffffffffffffffffffffffffffffffff1603611d0f575f6040517f1e4fbdf7000000000000000000000000000000000000000000000000000000008152600401611d069190613d7f565b60405180910390fd5b611d18816123fd565b50565b5f60095f8373ffffffffffffffffffffffffffffffffffffffff1673ffffffffffffffffffffffffffffffffffffffff1681526020019081526020015f205f9054906101000a900460ff169050919050565b5f7fd9b67a26000000000000000000000000000000000000000000000000000000007bffffffffffffffffffffffffffffffffffffffffffffffffffffffff1916827bffffffffffffffffffffffffffffffffffffffffffffffffffffffff19161480611e3757507f0e89341c000000000000000000000000000000000000000000000000000000007bffffffffffffffffffffffffffffffffffffffffffffffffffffffff1916827bffffffffffffffffffffffffffffffffffffffffffffffffffffffff1916145b80611e475750611e46826125da565b5b9050919050565b611e56611ed5565b73ffffffffffffffffffffffffffffffffffffffff16611e746119ae565b73ffffffffffffffffffffffffffffffffffffffff1614611ed357611e97611ed5565b6040517f118cdaa7000000000000000000000000000000000000000000000000000000008152600401611eca9190613d7f565b60405180910390fd5b565b5f33905090565b8173ffffffffffffffffffffffffffffffffffffffff168173ffffffffffffffffffffffffffffffffffffffff1614158015611f1f5750611f1d8183611be4565b155b15611f635781816040517fe237d922000000000000000000000000000000000000000000000000000000008152600401611f5a92919061414a565b60405180910390fd5b5050565b5f73ffffffffffffffffffffffffffffffffffffffff168473ffffffffffffffffffffffffffffffffffffffff1603611fd7575f6040517f57f447ce000000000000000000000000000000000000000000000000000000008152600401611fce9190613d7f565b60405180910390fd5b5f73ffffffffffffffffffffffffffffffffffffffff168573ffffffffffffffffffffffffffffffffffffffff1603612047575f6040517f01a8351400000000000000000000000000000000000000000000000000000000815260040161203e9190613d7f565b60405180910390fd5b61205685858585856001612643565b5050505050565b5f6120666126ed565b826040516020016120789291906141e5565b604051602081830303815290604052805190602001209050919050565b5f5f5f5f6120a5888888886127ba565b9250925092506120b582826128a1565b829350505050949350505050565b5f73ffffffffffffffffffffffffffffffffffffffff168373ffffffffffffffffffffffffffffffffffffffff1603612133575f6040517f3e31884e00000000000000000000000000000000000000000000000000000000815260040161212a9190613d7f565b60405180910390fd5b5f73ffffffffffffffffffffffffffffffffffffffff168273ffffffffffffffffffffffffffffffffffffffff16036121a3575f6040517fced3e10000000000000000000000000000000000000000000000000000000000815260040161219a9190613d7f565b60405180910390fd5b8060015f8573ffffffffffffffffffffffffffffffffffffffff1673ffffffffffffffffffffffffffffffffffffffff1681526020019081526020015f205f8473ffffffffffffffffffffffffffffffffffffffff1673ffffffffffffffffffffffffffffffffffffffff1681526020019081526020015f205f6101000a81548160ff0219169083151502179055508173ffffffffffffffffffffffffffffffffffffffff168373ffffffffffffffffffffffffffffffffffffffff167f17307eab39ab6107e8899845ad3d59bd9653f200f220920489ca2b5937696c318360405161228f91906132c2565b60405180910390a3505050565b5f60208202602084010151905092915050565b5f60208202602084010151905092915050565b5f5f60055f8481526020019081526020015f205490505f811480156122f2575060065f9054906101000a900460ff165b1561230257600754915050612307565b809150505b919050565b5f73ffffffffffffffffffffffffffffffffffffffff168473ffffffffffffffffffffffffffffffffffffffff160361237c575f6040517f57f447ce0000000000000000000000000000000000000000000000000000000081526004016123739190613d7f565b60405180910390fd5b5f5f6123888585612a03565b9150915061239a5f878484875f612643565b505050505050565b80600b5f8481526020019081526020015f2090816123c091906143bb565b50817fda84ca2183491f179a603e877b2cb058e42195041c2b9c53d746427e519a34df826040516123f1919061344a565b60405180910390a25050565b5f60035f9054906101000a900473ffffffffffffffffffffffffffffffffffffffff1690508160035f6101000a81548173ffffffffffffffffffffffffffffffffffffffff021916908373ffffffffffffffffffffffffffffffffffffffff1602179055508173ffffffffffffffffffffffffffffffffffffffff168173ffffffffffffffffffffffffffffffffffffffff167f8be0079c531659141344cd1fd0a4f28419497f9722a3daafe3b4186f6b6457e060405160405180910390a35050565b80600290816124cf91906143bb565b5050565b5f73ffffffffffffffffffffffffffffffffffffffff168473ffffffffffffffffffffffffffffffffffffffff1603612543575f6040517f57f447ce00000000000000000000000000000000000000000000000000000000815260040161253a9190613d7f565b60405180910390fd5b5f73ffffffffffffffffffffffffffffffffffffffff168573ffffffffffffffffffffffffffffffffffffffff16036125b3575f6040517f01a835140000000000000000000000000000000000000000000000000000000081526004016125aa9190613d7f565b60405180910390fd5b5f5f6125bf8585612a03565b915091506125d187878484875f612643565b50505050505050565b5f7f01ffc9a7000000000000000000000000000000000000000000000000000000007bffffffffffffffffffffffffffffffffffffffffffffffffffffffff1916827bffffffffffffffffffffffffffffffffffffffffffffffffffffffff1916149050919050565b61264f86868686612a33565b5f73ffffffffffffffffffffffffffffffffffffffff168573ffffffffffffffffffffffffffffffffffffffff16146126e5575f61268b611ed5565b905081156126a6576126a1818888888888612dc6565b6126e3565b5f6126ba5f876122af90919063ffffffff16565b90505f6126d05f876122af90919063ffffffff16565b90506126e0838a8a85858a612f75565b50505b505b505050505050565b5f7f8b73c3c69bb8fe3d512ecc4cf759cc79239f7b179b0ffacaa9a75d522b39400f6040518060400160405280601581526020017f5265616c466c6f7720525741546f6b656e697a65720000000000000000000000815250805190602001206040518060400160405280600181526020017f310000000000000000000000000000000000000000000000000000000000000081525080519060200120463060405160200161279f95949392919061448a565b60405160208183030381529060405280519060200120905090565b5f5f5f7f7fffffffffffffffffffffffffffffff5d576e7357a4501ddfe92f46681b20a0845f1c11156127f6575f600385925092509250612897565b5f6001888888886040515f815260200160405260405161281994939291906144ea565b6020604051602081039080840390855afa158015612839573d5f5f3e3d5ffd5b5050506020604051035190505f73ffffffffffffffffffffffffffffffffffffffff168173ffffffffffffffffffffffffffffffffffffffff160361288a575f60015f5f1b93509350935050612897565b805f5f5f1b935093509350505b9450945094915050565b5f60038111156128b4576128b361452d565b5b8260038111156128c7576128c661452d565b5b03156129ff57600160038111156128e1576128e061452d565b5b8260038111156128f4576128f361452d565b5b0361292b576040517ff645eedf00000000000000000000000000000000000000000000000000000000815260040160405180910390fd5b6002600381111561293f5761293e61452d565b5b8260038111156129525761295161452d565b5b0361299657805f1c6040517ffce698f700000000000000000000000000000000000000000000000000000000815260040161298d919061320f565b60405180910390fd5b6003808111156129a9576129a861452d565b5b8260038111156129bc576129bb61452d565b5b036129fe57806040517fd78bce0c0000000000000000000000000000000000000000000000000000000081526004016129f5919061455a565b60405180910390fd5b5b5050565b60608060405191506001825283602083015260408201905060018152826020820152604081016040529250929050565b8051825114612a7d57815181516040517f5b059991000000000000000000000000000000000000000000000000000000008152600401612a74929190613f1b565b60405180910390fd5b5f612a86611ed5565b90505f5f90505b8351811015612c85575f612aaa82866122af90919063ffffffff16565b90505f612ac083866122af90919063ffffffff16565b90505f73ffffffffffffffffffffffffffffffffffffffff168873ffffffffffffffffffffffffffffffffffffffff1614612be3575f5f5f8481526020019081526020015f205f8a73ffffffffffffffffffffffffffffffffffffffff1673ffffffffffffffffffffffffffffffffffffffff1681526020019081526020015f2054905081811015612b8f57888183856040517f03dee4c5000000000000000000000000000000000000000000000000000000008152600401612b869493929190614573565b60405180910390fd5b8181035f5f8581526020019081526020015f205f8b73ffffffffffffffffffffffffffffffffffffffff1673ffffffffffffffffffffffffffffffffffffffff1681526020019081526020015f2081905550505b5f73ffffffffffffffffffffffffffffffffffffffff168773ffffffffffffffffffffffffffffffffffffffff1614612c7857805f5f8481526020019081526020015f205f8973ffffffffffffffffffffffffffffffffffffffff1673ffffffffffffffffffffffffffffffffffffffff1681526020019081526020015f205f828254612c7091906140b4565b925050819055505b5050806001019050612a8d565b506001835103612d40575f612ca35f856122af90919063ffffffff16565b90505f612cb95f856122af90919063ffffffff16565b90508573ffffffffffffffffffffffffffffffffffffffff168773ffffffffffffffffffffffffffffffffffffffff168473ffffffffffffffffffffffffffffffffffffffff167fc3d58168c5ae7397731d063d5bbf3d657854427343f4c083240f7aacaa2d0f628585604051612d31929190613f1b565b60405180910390a45050612dbf565b8373ffffffffffffffffffffffffffffffffffffffff168573ffffffffffffffffffffffffffffffffffffffff168273ffffffffffffffffffffffffffffffffffffffff167f4a39dc06d4c0dbc64b70af90fd698a233a518aa5d07e595d983b8c0526c8f7fb8686604051612db69291906145b6565b60405180910390a45b5050505050565b5f8473ffffffffffffffffffffffffffffffffffffffff163b1115612f6d578373ffffffffffffffffffffffffffffffffffffffff1663bc197c8187878686866040518663ffffffff1660e01b8152600401612e2695949392919061463d565b6020604051808303815f875af1925050508015612e6157506040513d601f19601f82011682018060405250810190612e5e91906146b7565b60015b612ee2573d805f8114612e8f576040519150601f19603f3d011682016040523d82523d5f602084013e612e94565b606091505b505f815103612eda57846040517f57f447ce000000000000000000000000000000000000000000000000000000008152600401612ed19190613d7f565b60405180910390fd5b805160208201fd5b63bc197c8160e01b7bffffffffffffffffffffffffffffffffffffffffffffffffffffffff1916817bffffffffffffffffffffffffffffffffffffffffffffffffffffffff191614612f6b57846040517f57f447ce000000000000000000000000000000000000000000000000000000008152600401612f629190613d7f565b60405180910390fd5b505b505050505050565b5f8473ffffffffffffffffffffffffffffffffffffffff163b111561311c578373ffffffffffffffffffffffffffffffffffffffff1663f23a6e6187878686866040518663ffffffff1660e01b8152600401612fd59594939291906146e2565b6020604051808303815f875af192505050801561301057506040513d601f19601f8201168201806040525081019061300d91906146b7565b60015b613091573d805f811461303e576040519150601f19603f3d011682016040523d82523d5f602084013e613043565b606091505b505f81510361308957846040517f57f447ce0000000000000000000000000000000000000000000000000000000081526004016130809190613d7f565b60405180910390fd5b805160208201fd5b63f23a6e6160e01b7bffffffffffffffffffffffffffffffffffffffffffffffffffffffff1916817bffffffffffffffffffffffffffffffffffffffffffffffffffffffff19161461311a57846040517f57f447ce0000000000000000000000000000000000000000000000000000000081526004016131119190613d7f565b60405180910390fd5b505b505050505050565b5f604051905090565b5f5ffd5b5f5ffd5b5f73ffffffffffffffffffffffffffffffffffffffff82169050919050565b5f61315e82613135565b9050919050565b61316e81613154565b8114613178575f5ffd5b50565b5f8135905061318981613165565b92915050565b5f819050919050565b6131a18161318f565b81146131ab575f5ffd5b50565b5f813590506131bc81613198565b92915050565b5f5f604083850312156131d8576131d761312d565b5b5f6131e58582860161317b565b92505060206131f6858286016131ae565b9150509250929050565b6132098161318f565b82525050565b5f6020820190506132225f830184613200565b92915050565b5f7fffffffff0000000000000000000000000000000000000000000000000000000082169050919050565b61325c81613228565b8114613266575f5ffd5b50565b5f8135905061327781613253565b92915050565b5f602082840312156132925761329161312d565b5b5f61329f84828501613269565b91505092915050565b5f8115159050919050565b6132bc816132a8565b82525050565b5f6020820190506132d55f8301846132b3565b92915050565b5f6bffffffffffffffffffffffff82169050919050565b6132fb816132db565b8114613305575f5ffd5b50565b5f81359050613316816132f2565b92915050565b5f5f604083850312156133325761333161312d565b5b5f61333f8582860161317b565b925050602061335085828601613308565b9150509250929050565b613363816132a8565b811461336d575f5ffd5b50565b5f8135905061337e8161335a565b92915050565b5f602082840312156133995761339861312d565b5b5f6133a684828501613370565b91505092915050565b5f602082840312156133c4576133c361312d565b5b5f6133d1848285016131ae565b91505092915050565b5f81519050919050565b5f82825260208201905092915050565b8281835e5f83830152505050565b5f601f19601f8301169050919050565b5f61341c826133da565b61342681856133e4565b93506134368185602086016133f4565b61343f81613402565b840191505092915050565b5f6020820190508181035f8301526134628184613412565b905092915050565b5f5f604083850312156134805761347f61312d565b5b5f61348d8582860161317b565b925050602061349e85828601613370565b9150509250929050565b5f5ffd5b5f5ffd5b5f5ffd5b5f5f83601f8401126134c9576134c86134a8565b5b8235905067ffffffffffffffff8111156134e6576134e56134ac565b5b602083019150836020820283011115613502576135016134b0565b5b9250929050565b5f5f5f604084860312156135205761351f61312d565b5b5f84013567ffffffffffffffff81111561353d5761353c613131565b5b613549868287016134b4565b9350935050602061355c86828701613370565b9150509250925092565b5f5f6040838503121561357c5761357b61312d565b5b5f613589858286016131ae565b925050602061359a858286016131ae565b9150509250929050565b6135ad81613154565b82525050565b5f6040820190506135c65f8301856135a4565b6135d36020830184613200565b9392505050565b7f4e487b71000000000000000000000000000000000000000000000000000000005f52604160045260245ffd5b61361082613402565b810181811067ffffffffffffffff8211171561362f5761362e6135da565b5b80604052505050565b5f613641613124565b905061364d8282613607565b919050565b5f67ffffffffffffffff82111561366c5761366b6135da565b5b602082029050602081019050919050565b5f61368f61368a84613652565b613638565b905080838252602082019050602084028301858111156136b2576136b16134b0565b5b835b818110156136db57806136c788826131ae565b8452602084019350506020810190506136b4565b5050509392505050565b5f82601f8301126136f9576136f86134a8565b5b813561370984826020860161367d565b91505092915050565b5f5ffd5b5f67ffffffffffffffff8211156137305761372f6135da565b5b61373982613402565b9050602081019050919050565b828183375f83830152505050565b5f61376661376184613716565b613638565b90508281526020810184848401111561378257613781613712565b5b61378d848285613746565b509392505050565b5f82601f8301126137a9576137a86134a8565b5b81356137b9848260208601613754565b91505092915050565b5f5f5f5f5f60a086880312156137db576137da61312d565b5b5f6137e88882890161317b565b95505060206137f98882890161317b565b945050604086013567ffffffffffffffff81111561381a57613819613131565b5b613826888289016136e5565b935050606086013567ffffffffffffffff81111561384757613846613131565b5b613853888289016136e5565b925050608086013567ffffffffffffffff81111561387457613873613131565b5b61388088828901613795565b9150509295509295909350565b5f602082840312156138a2576138a161312d565b5b5f6138af8482850161317b565b91505092915050565b5f60ff82169050919050565b6138cd816138b8565b81146138d7575f5ffd5b50565b5f813590506138e8816138c4565b92915050565b5f819050919050565b613900816138ee565b811461390a575f5ffd5b50565b5f8135905061391b816138f7565b92915050565b5f5f5f5f5f5f60c0878903121561393b5761393a61312d565b5b5f61394889828a0161317b565b965050602061395989828a0161317b565b955050604061396a89828a016131ae565b945050606061397b89828a016138da565b935050608061398c89828a0161390d565b92505060a061399d89828a0161390d565b9150509295509295509295565b5f67ffffffffffffffff8211156139c4576139c36135da565b5b602082029050602081019050919050565b5f6139e76139e2846139aa565b613638565b90508083825260208201905060208402830185811115613a0a57613a096134b0565b5b835b81811015613a335780613a1f888261317b565b845260208401935050602081019050613a0c565b5050509392505050565b5f82601f830112613a5157613a506134a8565b5b8135613a618482602086016139d5565b91505092915050565b5f5f60408385031215613a8057613a7f61312d565b5b5f83013567ffffffffffffffff811115613a9d57613a9c613131565b5b613aa985828601613a3d565b925050602083013567ffffffffffffffff811115613aca57613ac9613131565b5b613ad6858286016136e5565b9150509250929050565b5f81519050919050565b5f82825260208201905092915050565b5f819050602082019050919050565b613b128161318f565b82525050565b5f613b238383613b09565b60208301905092915050565b5f602082019050919050565b5f613b4582613ae0565b613b4f8185613aea565b9350613b5a83613afa565b805f5b83811015613b8a578151613b718882613b18565b9750613b7c83613b2f565b925050600181019050613b5d565b5085935050505092915050565b5f6020820190508181035f830152613baf8184613b3b565b905092915050565b5f5f5f60608486031215613bce57613bcd61312d565b5b5f613bdb868287016131ae565b9350506020613bec8682870161317b565b9250506040613bfd86828701613308565b9150509250925092565b5f67ffffffffffffffff821115613c2157613c206135da565b5b613c2a82613402565b9050602081019050919050565b5f613c49613c4484613c07565b613638565b905082815260208101848484011115613c6557613c64613712565b5b613c70848285613746565b509392505050565b5f82601f830112613c8c57613c8b6134a8565b5b8135613c9c848260208601613c37565b91505092915050565b5f5f5f5f60808587031215613cbd57613cbc61312d565b5b5f613cca8782880161317b565b9450506020613cdb878288016131ae565b9350506040613cec878288016131ae565b925050606085013567ffffffffffffffff811115613d0d57613d0c613131565b5b613d1987828801613c78565b91505092959194509250565b5f5f60408385031215613d3b57613d3a61312d565b5b5f83013567ffffffffffffffff811115613d5857613d57613131565b5b613d6485828601613c78565b9250506020613d758582860161317b565b9150509250929050565b5f602082019050613d925f8301846135a4565b92915050565b5f5f60408385031215613dae57613dad61312d565b5b5f613dbb8582860161317b565b9250506020613dcc8582860161317b565b9150509250929050565b5f5f5f5f5f60a08688031215613def57613dee61312d565b5b5f613dfc8882890161317b565b9550506020613e0d8882890161317b565b9450506040613e1e888289016131ae565b9350506060613e2f888289016131ae565b925050608086013567ffffffffffffffff811115613e5057613e4f613131565b5b613e5c88828901613795565b9150509295509295909350565b613e72816132db565b82525050565b5f602082019050613e8b5f830184613e69565b92915050565b7f4e487b71000000000000000000000000000000000000000000000000000000005f52602260045260245ffd5b5f6002820490506001821680613ed557607f821691505b602082108103613ee857613ee7613e91565b5b50919050565b7f4e487b71000000000000000000000000000000000000000000000000000000005f52603260045260245ffd5b5f604082019050613f2e5f830185613200565b613f3b6020830184613200565b9392505050565b7f4e487b71000000000000000000000000000000000000000000000000000000005f52601160045260245ffd5b5f613f798261318f565b9150613f848361318f565b9250828202613f928161318f565b91508282048414831517613fa957613fa8613f42565b5b5092915050565b7f4e487b71000000000000000000000000000000000000000000000000000000005f52601260045260245ffd5b5f613fe78261318f565b9150613ff28361318f565b92508261400257614001613fb0565b5b828204905092915050565b5f6140178261318f565b91507fffffffffffffffffffffffffffffffffffffffffffffffffffffffffffffffff820361404957614048613f42565b5b600182019050919050565b61405d816138ee565b82525050565b5f60a0820190506140765f830188614054565b61408360208301876135a4565b61409060408301866135a4565b61409d6060830185613200565b6140aa6080830184613200565b9695505050505050565b5f6140be8261318f565b91506140c98361318f565b92508282019050808211156140e1576140e0613f42565b5b92915050565b5f6060820190506140fa5f830186613200565b6141076020830185613200565b6141146040830184613200565b949350505050565b5f60408201905061412f5f830185613200565b81810360208301526141418184613412565b90509392505050565b5f60408201905061415d5f8301856135a4565b61416a60208301846135a4565b9392505050565b5f81905092915050565b7f19010000000000000000000000000000000000000000000000000000000000005f82015250565b5f6141af600283614171565b91506141ba8261417b565b600282019050919050565b5f819050919050565b6141df6141da826138ee565b6141c5565b82525050565b5f6141ef826141a3565b91506141fb82856141ce565b60208201915061420b82846141ce565b6020820191508190509392505050565b5f819050815f5260205f209050919050565b5f6020601f8301049050919050565b5f82821b905092915050565b5f600883026142777fffffffffffffffffffffffffffffffffffffffffffffffffffffffffffffffff8261423c565b614281868361423c565b95508019841693508086168417925050509392505050565b5f819050919050565b5f6142bc6142b76142b28461318f565b614299565b61318f565b9050919050565b5f819050919050565b6142d5836142a2565b6142e96142e1826142c3565b848454614248565b825550505050565b5f5f905090565b6143006142f1565b61430b8184846142cc565b505050565b5b8181101561432e576143235f826142f8565b600181019050614311565b5050565b601f821115614373576143448161421b565b61434d8461422d565b8101602085101561435c578190505b6143706143688561422d565b830182614310565b50505b505050565b5f82821c905092915050565b5f6143935f1984600802614378565b1980831691505092915050565b5f6143ab8383614384565b9150826002028217905092915050565b6143c4826133da565b67ffffffffffffffff8111156143dd576143dc6135da565b5b6143e78254613ebe565b6143f2828285614332565b5f60209050601f831160018114614423575f8415614411578287015190505b61441b85826143a0565b865550614482565b601f1984166144318661421b565b5f5b8281101561445857848901518255600182019150602085019450602081019050614433565b868310156144755784890151614471601f891682614384565b8355505b6001600288020188555050505b505050505050565b5f60a08201905061449d5f830188614054565b6144aa6020830187614054565b6144b76040830186614054565b6144c46060830185613200565b6144d160808301846135a4565b9695505050505050565b6144e4816138b8565b82525050565b5f6080820190506144fd5f830187614054565b61450a60208301866144db565b6145176040830185614054565b6145246060830184614054565b95945050505050565b7f4e487b71000000000000000000000000000000000000000000000000000000005f52602160045260245ffd5b5f60208201905061456d5f830184614054565b92915050565b5f6080820190506145865f8301876135a4565b6145936020830186613200565b6145a06040830185613200565b6145ad6060830184613200565b95945050505050565b5f6040820190508181035f8301526145ce8185613b3b565b905081810360208301526145e28184613b3b565b90509392505050565b5f81519050919050565b5f82825260208201905092915050565b5f61460f826145eb565b61461981856145f5565b93506146298185602086016133f4565b61463281613402565b840191505092915050565b5f60a0820190506146505f8301886135a4565b61465d60208301876135a4565b818103604083015261466f8186613b3b565b905081810360608301526146838185613b3b565b905081810360808301526146978184614605565b90509695505050505050565b5f815190506146b181613253565b92915050565b5f602082840312156146cc576146cb61312d565b5b5f6146d9848285016146a3565b91505092915050565b5f60a0820190506146f55f8301886135a4565b61470260208301876135a4565b61470f6040830186613200565b61471c6060830185613200565b818103608083015261472e8184614605565b9050969550505050505056fea2646970667358221220ee41dab9357719722805844d428dd99a4884267be947b15c6a2aa025e3bcf4e364736f6c634300081e0033","linkReferences":{}},"methodIdentifiers":{"balanceOf(address,uint256)":"00fdd58e","balanceOfBatch(address[],uint256[])":"4e1273f4","batchBlacklist(address[],bool)":"1a2266b0","batchWhitelist(address[],bool)":"b5adce3f","blacklistEnabled()":"bffb691d","getTokenCap(uint256)":"52278e48","getTokenSupply(uint256)":"19b88edb","initialize(string,address)":"7ab4339d","initialized()":"158ef93e","isApprovedForAll(address,address)":"e985e9c5","isBlacklisted(address)":"fe575a87","isWhitelisted(address)":"3af32abf","mintRWA(address,uint256,uint256,string)":"5d77c0ca","nonces(address)":"7ecebe00","owner()":"8da5cb5b","permit(address,address,uint256,uint8,bytes32,bytes32)":"48613c28","renounceOwnership()":"715018a6","royaltyInfo(uint256,uint256)":"2a55205a","safeBatchTransferFrom(address,address,uint256[],uint256[],bytes)":"2eb2c2d6","safeTransferFrom(address,address,uint256,uint256,bytes)":"f242432a","setApprovalForAll(address,bool)":"a22cb465","setBlacklist(address,bool)":"153b0d1e","setBlacklistEnabled(bool)":"1201cbd0","setDefaultRoyalty(address,uint96)":"04634d8d","setDefaultSupplyCap(uint256)":"e569e8ec","setTokenCap(uint256,uint256)":"230fe6e5","setTokenRoyalty(uint256,address,uint96)":"5944c753","setWhitelist(address,bool)":"53d6fd59","setWhitelistEnabled(bool)":"052d9e7e","supportsInterface(bytes4)":"01ffc9a7","transferOwnership(address)":"f2fde38b","uri(uint256)":"0e89341c","whitelistEnabled()":"51fb012d"},"id":38}